:020000040800F2
:1000000000200020F9010008850200088502000890
:1000100085020008850200088502000885020008A4
:100020008502000885020008850200088502000894
:100030008502000885020008850200088502000884
:100040008502000885020008850200088502000874
:100050008502000885020008850200088502000864
:100060008502000885020008850200088502000854
:100070008502000885020008850200088502000844
:100080008502000885020008850200088502000834
:100090008502000885020008850200088502000824
:1000A0008502000885020008850200088502000814
:1000B000BB060008850200088502000885020008CA
:1000C00080B500AF2C4B1A682B4B2C490A401A60A4
:1000D000294B1A6880239B0413405A1E9341DBB2BC
:1000E000002B00D0F4E7264B1A68254B0F218A43DA
:1000F0001A60234B1A68224B02210A431A60204BD4
:100100001A681F4B802149000A431A601A4BDA68AB
:10011000194B02210A43DA60174BDA68164B19496A
:100120000A40DA60144BDA68134B802149010A4314
:10013000DA60114BDA68104BF0218A43DA600E4B1B
:10014000DA680D4B10210A43DA600B4BDA680A4B70
:10015000C02189050A43DA60074B1A68064B8021E3
:1001600049040A431A60044B9A68034B02210A436C
:100170009A60C046BD4680BD00100240FFFFFFFEF2
:1001800000200240FF80FFFF80B582B000AF164A1A
:10019000164BD31A9B103B6000237B607A683B6848
:1001A0009A4208D2114B7A689200D35898477B68DC
:1001B00001337B60F2E70E4A0E4BD31A9B103B6073
:1001C00000237B607A683B689A4208D2094B7A68C0
:1001D0009200D35898477B6801337B60F2E7C046B2
:1001E000BD4602B080BDC046300900083009000895
:1001F000340900083009000880B584B000AFFFF76B
:100200005FFF1B4BFB601B4BBB601B4A194BD31A98
:100210007B607B685A1E7A605A1E9341DBB2002BCA
:1002200009D0FB685A1CFA601978BB685A1CBA607E
:100230000A1C1A70EDE7114BBB60114A0F4BD31A21
:100240007B607B685A1E7A605A1E9341DBB2002B9A
:1002500005D0BB685A1CBA6000221A70F1E7FFF79C
:1002600093FF00F024F8C046BD4604B080BDC046F0
:10027000800A00080000002000000020000000208C
:100280001C01002080B500AFFEE7C04680B582B0FB
:1002900000AF78607B685A1E7A605A1E9341DBB2C9
:1002A000002B00D0F6E7C046BD4602B080BD80B549
:1002B00082B000AF00237B60214B180000F06AF889
:1002C000204B5A6B1F4B01210A435A63A023DB05C5
:1002D0001A68A023DB0502218A431A60A023DB05EC
:1002E0001A68A023DB0501210A431A60144B180089
:1002F00000F0D8F903005A1E9341DBB2002BF5D071
:100300000F4B180000F0FCF803001A000C4B110012
:10031000180000F047F9A023DB055A69A023DB058C
:1003200001210A435A61084B1800FFF7AFFFA023D1
:10033000DB055A69A023DB0501218A435A61D5E711
:1003400000000020001002403075000080B582B02F
:1003500000AF786039607B68012B07D13B68054AA4
:10036000934203D1044B180000F081FBC046BD4608
:1003700002B080BDFFFF00000000002080B500AF8C
:10038000034B19000120FFF7E1FFBD4680BDC046C9
:10039000FFFF000080B584B000AF786096239B011A
:1003A000FB603C4B7A681A6072B67B68942200212D
:1003B000995000237A68902153507A688C215350C9
:1003C0007B6800229A6000227B685A607B681A6012
:1003D000314B5A6B304B01210A435A632E4BDA6B77
:1003E0002D4B802189020A43DA63A023DB051A68BA
:1003F000A023DB05A0210A431A60A023DB051A68AD
:10040000A023DB0550218A431A60A023DB051A6A6A
:10041000A023DB0521490A401A62A023DB051A6AE2
:10042000A023DB05882149010A431A621C4BBB60EB
:10043000F968B86800F090F90300BB60164BDA6AFF
:10044000154B18490A40DA62174B00221A60164B06
:1004500000225A60144B00229A60134BBA68DA608B
:10046000114B012252421A620F4B6C221A600E4B42
:100470001A680D4B01210A431A600C4B1A680B4B8A
:10048000802149050A431A6062B6C046BD4604B0E1
:1004900080BDC0461801002000100240FF00FFFF91
:1004A0000090D003FFFFFDFF0044004000E100E0AA
:1004B00080B582B000AF78600A00FB1C1A700F4B49
:1004C0001B68082213405A425341DBB2002B0AD06A
:1004D0000A4B1A68094B08210A431A60074BFA1C99
:1004E00012789A6206E07968FB1C1A787B6818001B
:1004F00000F082F8C046BD4602B080BD0044004016
:1005000080B582B000AF78607B688C331A007B685E
:100510001100180000F09AF803001800BD4602B060
:1005200080BD80B586B000AF786039600A237B61FA
:1005300008217B180022DA723B68002B06DA7B1850
:100540002D221A703B685B423B6003E00823FB18D6
:100550002B221A707B69002B19DD3B680A211800D9
:1005600000F0E0F90B00DBB23033D9B20823FA18FF
:100570007B69D3180A1C1A703B680A21180000F026
:10058000EBF803003B607B69013B7B61E2E70823FA
:10059000FA187B681100180000F016F8C046BD4636
:1005A00006B080BD80B582B000AF78600A00FB1C49
:1005B0001A70FB1C1A787B6811001800FFF778FF8F
:1005C000C046BD4602B080BD80B582B000AF786045
:1005D00039603B681B78002B0AD03B681A787B682F
:1005E00011001800FFF764FF3B6801333B60F0E740
:1005F000C046BD4602B080BD80B584B000AFF86093
:10060000B960FB1D1A70BB689A687F210023914274
:100610005B41DBB2002B15D072B6BB689B685A1CDD
:10062000BB689A60FB1D1978BB681B68BA68D31851
:100630000A1C1A73BB681B6801337F221A40BB680F
:100640001A6062B6C046BD4604B080BD80B584B0B5
:1006500000AF786039600F217B1800221A703B6868
:100660009B685A1E9341DBB2002B14D072B63B68D4
:100670009B685A1E3B689A603B685A687B183968C9
:100680008A18127B1A703B685B6801337F221A401C
:100690003B685A6062B60F23FB181B781800BD46F2
:1006A00004B080BD80B582B000AF78607B689422D2
:1006B0009B581800BD4602B080BD80B500AF244BEA
:1006C000DB69802213405A1E9341DBB2002B20D0FD
:1006D0001F4B1A6A1E4B60210A431A621D4B1B688E
:1006E0009B685A1E9341DBB2002B0CD0194B1A6841
:1006F000184B1B6819001000FFF7A8FF03001A0031
:10070000134B9A6205E0124B1A68114B08218A4379
:100710001A600F4BDB69202213405A1E9341DBB253
:10072000002B11D00B4B18680A4B1B688C33190037
:10073000074B5B6ADBB21A00FFF75EFF044B1A6AD5
:10074000034B20210A431A62C046BD4680BDC04605
:10075000004400401801002003460B437FD40022D0
:1007600043088B4274D303098B425FD3030A8B4245
:1007700044D3030B8B4228D3030C8B420DD3FF22AF
:10078000090212BA030C8B4202D31212090265D07D
:10079000030B8B4219D300E0090AC30B8B4201D330
:1007A000CB03C01A5241830B8B4201D38B03C01A77
:1007B0005241430B8B4201D34B03C01A5241030BEE
:1007C0008B4201D30B03C01A5241C30A8B4201D39F
:1007D000CB02C01A5241830A8B4201D38B02C01A4A
:1007E0005241430A8B4201D34B02C01A5241030AC1
:1007F0008B4201D30B02C01A5241CDD2C3098B42A6
:1008000001D3CB01C01A524183098B4201D38B0122
:10081000C01A524143098B4201D34B01C01A5241C5
:1008200003098B4201D30B01C01A5241C3088B420A
:1008300001D3CB00C01A524183088B4201D38B00F5
:10084000C01A524143088B4201D34B00C01A524197
:10085000411A00D201465241104670475DE0CA0F6E
:1008600000D04942031000D34042534000229C462E
:1008700003098B422DD3030A8B4212D3FC22890138
:1008800012BA030A8B420CD3890192118B4208D30E
:10089000890192118B4204D389013AD0921100E070
:1008A0008909C3098B4201D3CB01C01A5241830984
:1008B0008B4201D38B01C01A524143098B4201D3B1
:1008C0004B01C01A524103098B4201D30B01C01ADC
:1008D0005241C3088B4201D3CB00C01A5241830856
:1008E0008B4201D38B00C01A5241D9D243088B42AC
:1008F00001D34B00C01A5241411A00D2014663464F
:1009000052415B10104601D34042002B00D54942B2
:10091000704763465B1000D3404201B5002000F0F1
:1009200005F802BD0029F8D016E770477047C046A9
:100930007D0300084743433A2028474E5520546F13
:100940006F6C7320666F722041726D20456D626519
:10095000646465642050726F636573736F72732093
:10096000392D323031392D71342D6D616A6F722914
:1009700020392E322E31203230313931303235208B
:100980002872656C6561736529205B41524D2F614A
:10099000726D2D392D6272616E63682072657669A1
:1009A00073696F6E203237373539395D00412B005E
:1009B0000000616561626900012100000005365395
:1009C0002D4D00060C074D090112041401150117E5
:1009D00003180119011A011E06412B000000616570
:1009E0006162690001210000000536532D4D0006AB
:1009F0000C074D0901120414011501170318011900
:100A0000011A011E06412B00000061656162690048
:100A100001210000000536532D4D00060C074D093D
:100A2000011204140115011703180119011A011EFE
:100A300006411D000000616561626900011300004C
:100A4000000536532D4D00060C074D0901190141D3
:100A50001D0000006165616269000113000000056E
:0D0A600036532D4D00060C074D09011901FC
:100A6E0080B582B000AF78607B681800BD4602B0DA
:020A7E0080BD39
:0400000508000000EF
:00000001FF
