:020000040800F2
:10000000002000202D1A0008B91A0008B91A0008AB
:10001000B91A0008B91A0008B91A0008B91A000874
:10002000B91A0008B91A0008B91A0008B91A000864
:10003000B91A0008B91A0008B91A000811260008F0
:10004000B91A0008B91A0008B91A0008B91A000844
:10005000B91A0008B91A0008B91A0008B91A000834
:10006000B91A0008B91A0008B91A0008B91A000824
:10007000B91A0008B91A0008B91A0008B91A000814
:10008000B91A0008B91A0008B91A0008B91A000804
:10009000B91A0008B91A0008B91A0008B91A0008F4
:1000A000B91A0008B91A0008B91A0008B91A0008E4
:1000B000FF200008B91A0008B91A0008B91A000888
:1000C00080B582B000AF78607B682433180000F000
:1000D00099FE7B68180002F00FFA7B6825337A6876
:1000E0001100180000F08EFF7B682033180002F02A
:1000F00055F87B68064A1100180002F029FA7B685F
:10010000180000F02FFEC046BD4602B080BDC046BC
:1001100075230008F0B587B002AFF8600C0010003E
:1001200019000A257B19221C1A800826BB19021CFB
:100130001A80BB1D0A1C1A80FB6825331800BB1DE2
:100140001C88BB191A887B19198824230825AC46FA
:10015000BC4463441B88019320230825AC46BC445F
:1001600063441B880093230001F034F9C046BD4668
:1001700005B0F0BDF0B5C64600B586B002AFF86078
:100180000C00100019000A257B19221C1A80082671
:10019000BB19021C1A80BB1D0A1C1A807A19BB1DD0
:1001A00012881B88D3189CB2BB191B8898467B19F0
:1001B0001988F868242308229446BC4463441B88A9
:1001C0000193BB191B8800932300424600F063FB98
:1001D0003100BA1920200823FC18231812881B8824
:1001E000D3189BB22E00BA1915887A181488BA1938
:1001F00012889046F868242208218C46BC44624448
:100200001288019200932B002200414600F043FB2C
:10021000BA19BB1D12881B88D3189BB29846BA190D
:10022000BB1D12881B88D3189DB208203A182024C1
:100230000823F9180B1912881B88D3189BB23A1897
:100240001488F868242208218C46BC446244128831
:10025000019200932B002200414600F01CFB082174
:100260007A1820200823FC18231812881B88D3181A
:100270009CB2BA19BB1D12881B88D3189DB27A187C
:100280000823FB181B1812881B88D3189BB2BA19B5
:100290001188F86824220826B446BC4462441288B7
:1002A000019200932B00220000F0F5FAC046BD46F3
:1002B00004B004BC9046F0BDF0B58BB000AFF86060
:1002C0000C00100019000A257B19221C1A80082432
:1002D0003B19021C1A80BB1D0A1C1A80BB1D1B88FF
:1002E000013B7B6200233B620123FB610123BB6175
:1002F000BB1D1B885B00FA69D31A7B61BA1D7B1991
:1003000012881B889A4200D9E6E0BA1D3B19128870
:100310001B889A4200D9E1E07B191A88BB1D1B8813
:10032000D318F02B00DDDBE03B191A88BB1D1B88BE
:10033000D318F02B00DDD5E07A6A3B6A9A4200DAE6
:10034000D1E0FB68253318007B6A9AB20A243B1976
:100350001B88D31899B23B6A9AB208257B191B886F
:10036000D3189AB238260823FB189B191B8800F073
:10037000FDFEFB68253318003B6A9AB23B191B88C7
:10038000D31899B27B6A9AB27B191B88D3189AB298
:100390000823FB189B191B8800F0E8FEFB68253337
:1003A00018003B6A9BB23A191288D31A99B27B6A39
:1003B0009AB27B191B88D3189AB20823FB189B1991
:1003C0001B8800F0D3FEFB68253318007B6A9BB2C4
:1003D0003A191288D31A99B23B6A9AB27B191B88D0
:1003E000D3189AB20823FB189B191B8800F0BEFE95
:1003F000FB68253318007B6A9BB23A191288D31A1E
:1004000099B23B6A9BB27A191288D31A9AB208231E
:10041000FB189B191B8800F0A9FEFB682533180008
:100420003B6A9BB23A191288D31A99B27B6A9BB283
:100430007A191288D31A9AB20823FB189B191B88C1
:1004400000F094FEFB68253318003B6A9AB23B1912
:100450001B88D31899B27B6A9BB27A191288D31A77
:100460009AB20823FB189B191B8800F07FFEFB68DB
:10047000253318007B6A9AB23B191B88D31899B2AE
:100480003B6A9BB27A191288D31A9AB20823FB18D6
:100490009B191B8800F06AFE7B69002B09DC3B6A14
:1004A00001333B627A69BB69D3187B61BB69023354
:1004B000BB617B69002B00DC3EE77B6A013B7B6212
:1004C000FB690233FB61BB1D1B885B00FA69D31A11
:1004D0007A69D3187B612FE7C04604E0C04602E08A
:1004E000C04600E0C046BD460BB0F0BDF0B5C64604
:1004F00000B58CB002AFF8600C00100019000A259E
:100500007B19221C1A8008243B19021C1A80BB1D6F
:100510000A1C1A80BB1D1B88013B7B6200233B62C7
:100520000123FB610123BB61BB1D1B885B00FA69D2
:10053000D31A7B61BA1D7B1912881B889A4200D995
:10054000DAE0BA1D3B1912881B889A4200D9D5E01F
:100550007B191A88BB1D1B88D318F02B00DDCFE058
:100560003B191A88BB1D1B88D318F02B00DDC9E08E
:100570007A6A3B6A9A4200DAC5E07B6A9BB20A2635
:10058000BA191288D31A99B23B6A9AB208203B185A
:100590001B88D3189CB27B6A9AB2BB191B88D318EC
:1005A0009DB23B6A9AB23B181B88D3189BB29846FF
:1005B000F868382308229446BC4463441B8801939E
:1005C000434600932B00220000F065F93B6A9BB282
:1005D000BA191288D31A99B27B6A9AB208203B18CA
:1005E0001B88D3189CB23B6A9AB2BB191B88D318DC
:1005F0009DB27B6A9AB23B181B88D3189BB298466F
:10060000F868382308229446BC4463441B8801934D
:10061000434600932B00220000F03DF97B6A9BB219
:10062000BA191288D31A99B23B6A9BB208203A18B9
:100630001288D31A9CB27B6A9AB2BB191B88D31852
:100640009DB23B6A9BB23A181288D31A9BB2984665
:10065000F868382308229446BC4463441B880193FD
:10066000434600932B00220000F015F93B6A9BB231
:10067000BA191288D31A99B27B6A9BB208203A1829
:100680001288D31A9CB23B6A9AB2BB191B88D31842
:100690009DB27B6A9BB23A181288D31A9AB2F86854
:1006A00038230826B446BC4463441B880193009257
:1006B0002B00220000F0EFF87B69002B09DC3B6A7D
:1006C00001333B627A69BB69D3187B61BB69023332
:1006D000BB617B69002B00DC4AE77B6A013B7B62E4
:1006E000FB690233FB61BB1D1B885B00FA69D31AEF
:1006F0007A69D3187B613BE7C04604E0C04602E05C
:10070000C04600E0C046BD460AB004BC9046F0BDFD
:10071000B0B58AB000AFF8600C00100019000A25CF
:100720007B19221C1A8008243B19021C1A80BB1D4D
:100730000A1C1A80BB1D1A887B191B88D31A3B61BF
:100740003823FB181A883B191B88D31A7B620123B4
:100750003B627B6A002B05DA01235B423B627B6ACA
:100760005B427B627B6A5A003B69D31AFB610823B8
:10077000FB181B88BB610A23FB181B887B61BB1D10
:100780001B887A699A4220DCFB68253318007B6954
:1007900099B2BB699AB23C23FB181B8800F0E6FCB7
:1007A000FB69002B08DDBA693B6AD318BB613B6962
:1007B0005B00FA69D31AFB617B6A5B00FA69D318A4
:1007C000FB617B6901337B61D9E7C046BD460AB056
:1007D000B0BDB0B58AB000AFF8600C0010001900D1
:1007E0000A257B19221C1A8008243B19021C1A8036
:1007F000BB1D0A1C1A80BB1D1A887B191B88D31AC3
:100800007B623823FB181A883B191B88D31A3B617B
:1008100001233B627B6A002B05DA01235B423B62CA
:100820007B6A5B427B627B6A5A003B69D31AFB613D
:100830000A23FB181B88BB610823FB181B887B61FC
:100840003823FB181B887A699A4220DCFB68253321
:100850001800BB6999B27B699AB23C23FB181B88CC
:1008600000F084FCFB69002B08DDBA693B6AD318F1
:10087000BB613B695B00FA69D31AFB617B6A5B0071
:10088000FA69D318FB617B6901337B61D8E7C04605
:10089000BD460AB0B0BDB0B586B002AFF8600C007E
:1008A000100019000A257B19221C1A8008243B1904
:1008B000021C1A80BB1D0A1C1A802023FB181A88F0
:1008C0003B191B88D21AFB681100180002F0F3FADA
:1008D0000400BB1D1A887B191B88D21AFB68110003
:1008E000180002F0E8FA030001229C4201DB002319
:1008F0001A1CD3B2002B2FD00A217A18BB1D1288E4
:100900001B889A4213D97B181C882023FB181A884D
:10091000BB1D1988F8682423FB181B880193082342
:10092000FB181B8800932300FFF7F2FE43E0BB1D7A
:100930001C880823FB181A880A23FB181988F868F2
:100940002423FB181B8801932023FB181B8800938A
:100950002300FFF7DDFE2EE008257A1920217B1801
:1009600012881B889A4212D90A23FB181C887B180C
:100970001A88BB1D1988F8682423FB181B8801936B
:100980007B191B8800932300FFF723FF13E0BB1D97
:100990001C880823FB181A880A23FB181988F86892
:1009A0002423FB181B8801932023FB181B8800932A
:1009B0002300FFF70EFFC046BD4604B0B0BDF0B542
:1009C00085B000AFF8600C00100019000A257B19F3
:1009D000221C1A800826BB19021C1A80BB1D0A1C87
:1009E0001A80FB6825331800BB1D1C88BB191A88A8
:1009F0007B191988230000F0B9FBC046BD4605B03D
:100A0000F0BDF0B587B002AFF8600C00100019001F
:100A10000A257B19221C1A800826BB19021C1A8081
:100A2000BB1D0A1C1A80FB6825331800BB1D1C88DF
:100A3000BB191A887B191988FB6A019320230825A2
:100A4000AC46BC4463441B880093230000F0BEFB0B
:100A5000C046BD4605B0F0BD80B59AB002AFF860A3
:100A6000B9601900BB1D1A803B1D0A1C1A805F214A
:100A70007B1800221A700023BB657B1800221A70B5
:100A80005F217B181A78BB1D1B889A4200DB77E038
:100A90007B181B78BA68D3181B78203B1A00130008
:100AA0009B009A18384BD318BB655D23FB180022B6
:100AB0001A705D23FB181B78042B45D85E23FB18A6
:100AC00000221A705E217B181B78062B35D85D201A
:100AD0003B181B78BA6DD3181B781A007B181B784B
:100AE0001A411300012213400FD07B181A7813000B
:100AF0009B009A183B181B78D2181023FB18520041
:100B00006C2179180988D15210E05E23FB181A78FD
:100B100013009B009A185D23FB181B78D218102332
:100B2000FB185200702179180988D1525E217B1878
:100B30001A787B1801321A70C4E75D217B181A7885
:100B40007B1801321A70B4E7FB682533180068235C
:100B5000FB181A883B1D19881023FB1801930723E3
:100B60000093052300F032FB3B1D3A1D128807322B
:100B70001A805F217B181A787B1801321A707FE780
:100B8000C046BD4618B080BD88290008F0B58BB0BE
:100B900004AFF8600C00100019000A257B19221C14
:100BA0001A800823FB18021C1A80BB1D0A1C1A801D
:100BB0002C003B191B880A21180001F0D5FD0B0001
:100BC0009BB2DBB23033DAB21026BB191A712500A2
:100BD0007C197B191B880A21180001F03FFD0300D6
:100BE00023802C003B191B880A21180001F0BCFD52
:100BF0000B009BB2DBB23033DAB2BB19DA702500DE
:100C00007C197B191B880A21180001F027FD0300BD
:100C100023802C003B191B880A21180001F0A4FD39
:100C20000B009BB2DBB23033DAB2BB199A702500ED
:100C30007C197B191B880A21180001F00FFD0300A5
:100C400023802C003B191B880A21180001F08CFD21
:100C50000B009BB2DBB23033DAB2BB195A702500FD
:100C60007C197B191B880A21180001F0F7FC03008E
:100C700023807B191B880A21180001F075FD0B00E9
:100C80009BB2DBB23033DAB2BB191A700823FB18FF
:100C90001A88B919F8682C230824A446BC44634474
:100CA0001B88029328230824A446BC4463441B8861
:100CB0000193BB1D1B88009313000522FFF7CCFE98
:100CC000C046BD4607B0F0BD80B584B000AFF86047
:100CD000B9607A60FB68180000F00EF87A68BB68AB
:100CE000D31A190001F040FD0B001A00BB68D3189D
:100CF0001800BD4604B080BD80B584B000AF7860F8
:100D00000023FB60164B1B68002B21D1144B0122E2
:100D10001A607B689B6ADA0E7B689B6A9B0F534064
:100D200001221340FB60FB68DB43FB60FB68012290
:100D30001340FB607B689B6A5A007B689A627B6801
:100D40009A6AFB681A437B689A62054B00221A6014
:100D50007B689B6A5B015B091800BD4604B080BDDF
:100D60002C00002080B584B000AF78607B68002242
:100D70009A627B689B6A002B16D10123FB60FB689B
:100D8000102BF6DC7B682433180000F019F90300FF
:100D90001A00FB689A407B689B6A9A187B689A6283
:100DA000FB680133FB60EAE77B682433180000F03E
:100DB00087F8C046BD4604B080BD80B582B000AFA4
:100DC000786039607B68012B07D13B68054A934204
:100DD00003D1054B180002F052F8C046BD4602B0E0
:100DE00080BDC046FFFF00000000002080B500AFBE
:100DF000034B19000120FFF7E0FFBD4680BDC04650
:100E0000FFFF000080B584B000AF7860294B1A6CFA
:100E1000284B802149030A431A64274B1A69264B41
:100E2000802109060A431A61234B1A69224B234980
:100E30000A401A61204B00229A601F4B8022520107
:100E40009A621D4B802252059A601B4AC2239B0066
:100E5000D3581949C02212041A43C2239B00CA5016
:100E60000023FB60FA680123191CFA239B009A42B5
:100E700001DB0023191CCBB2002B03D0FB6801332C
:100E8000FB60EFE70C4B9A680B4B802109060A4385
:100E90009A60094B9B68DB0FDBB2002B00D0F8E7B0
:100EA000054B01225A61044B01229A60C046BD469F
:100EB00004B080BD0010024000240140FFFFFFBFCE
:100EC00080B582B000AF7860084B00229A60074A74
:100ED000C2239B000021D150054B1A6C044B0549DD
:100EE0000A401A64C046BD4602B080BD00240140DD
:100EF00000100240FFFFEFFF80B584B000AF7860C4
:100F00000E217B1800221A802C4B1B6901221340F2
:100F10005A425341DBB2002B05D07B187A18128855
:100F200002210A431A80254B1B69022213405A42B0
:100F30005341DBB2002B06D00E22BB18BA18128820
:100F400010210A431A80A023DB051B6901221340EC
:100F50005A425341DBB2002B06D00E22BB18BA18FE
:100F6000128804210A431A80A023DB051B69022290
:100F700013405A425341DBB2002B06D00E22BB185D
:100F8000BA18128808210A431A80A023DB051B69BE
:100F9000042213405A425341DBB2002B06D00E22EA
:100FA000BB18BA18128801210A431A800E23FB18B5
:100FB0001B881800BD4604B080BDC0460014005018
:100FC00080B582B000AF78600D4B802252019A62EA
:100FD0000B4B9A680A4B05210A439A60084B9B68A1
:100FE000042213405A425341DBB2002B00D0F5E7F4
:100FF000034B1B6C9BB21800BD4602B080BDC046BF
:101000000024014080B584B002AF78603960544B51
:101010005A6B534B01210A435A63A023DB051A681C
:10102000A023DB05802149010A431A60A023DB05C8
:101030001A68A023DB054B490A401A60484B5A6BDB
:10104000474B02210A435A63474B1A68464B042117
:101050000A431A60444B1A68434B08218A431A60BA
:101060007B68180000F022FB3B681921180001F092
:10107000B2FA7B68180000F009FB3B6819211800E0
:1010800001F0A9FA7B68180000F010FB3B681921F9
:10109000180001F0A0FA7B680121180000F016FB8F
:1010A0003B689621180001F096FA7B681121180020
:1010B00000F00CFB3B681921180001F08CFA7B68EA
:1010C0003A21180000F002FB7B685521180000F05F
:1010D00011FB3B681921180001F07DFA7B6836216D
:1010E000180000F0F3FA7B680821180000F002FBFA
:1010F0003B681921180001F06EFA7B685121180035
:1011000000F0E4FA3B681921180001F064FA7B68EA
:101110002121180000F0DAFA7B681321180000F092
:10112000D5FA7B682921180000F0D0FA3B68192114
:10113000180001F050FA7B682C21180000F0C6FA64
:10114000786800230193A0235B000093F023002222
:10115000002100F03FF9C046BD4602B080BDC04648
:1011600000100240FFDFFFFF00040050B0B586B062
:1011700002AFF8600C00100019000A257B19221C30
:101180001A8008243B19021C1A80BB1D0A1C1A80F5
:1011900029007B181B8801339DB23B191B88013342
:1011A0009BB23A1914887A181188F86800932B00BA
:1011B000220000F0E7F9BB1D1A88FB681100180037
:1011C00000F0ACFAC046BD4604B0B0BDF0B58DB07D
:1011D00002AFF8600C00100019000A257B19221CD0
:1011E0001A8008243B19021C1A80BB1D0A1C1A8095
:1011F0001626BA19382308218C46BC446344381992
:1012000019880388CB181380BB191A88A0235B00A8
:101210009A4254D829007A18BB1D12881B88D3180B
:101220009BB2013B9DB23A19382308208446BC4446
:10123000634412881B88D3189BB2013B9BB22600E3
:101240003A1914887A181188F86800932B00220044
:1012500000F098F9BB1900221A800823FA183823E5
:1012600008218C46BC44634412881B889A4200D3F0
:10127000ACE00A23FB1800221A800A243A19BB1D8D
:1012800012881B889A4213D27B6C9A1C7A641021B4
:101290007A181B8813807B181A88FB6811001800C5
:1012A00000F03CFA3B191A883B1901321A80E4E736
:1012B00008217B181A887B1801321A80CDE7142088
:1012C0003B1808257A191288A02149008A1A1A8029
:1012D0001223FA18382308218C46BC44634438187A
:1012E00019880388CB1A13800A217A18BB1D12882B
:1012F0001B88D3189BB2013B9CB27B191A887B18C0
:101300001988F8684023FF330093230000F03AF96E
:1013100000237B621423FB181B887A6A9A421CDA2A
:1013200000233B62BB1D1B883A6A9A4211DA7B6C30
:101330009A1C7A6410217A181B8813807B181A88EB
:10134000FB681100180000F0E9F93B6A01333B62C9
:10135000E8E77B6A01337B62DCE70A217A18BB1D70
:1013600012881B88D3189BB2013B9AB27B1819884C
:10137000F8681223FB181B8800931300002200F06A
:1013800001F90023FB611223FB181B88FA699A42BA
:101390001CDA0023BB61BB1D1B88BA699A4211DAB3
:1013A0007B6C9A1C7A6410217A181B8813807B1836
:1013B0001A88FB681100180000F0B0F9BB6901330E
:1013C000BB61E8E7FB690133FB61DCE7C046BD4672
:1013D0000BB0F0BDF0B58BB002AFF8600C001000A0
:1013E00019000A257B19221C1A8008243B19021CAB
:1013F0001A80BB1D0A1C1A80302608217B189B19F5
:101400001B88BA1D12885343FB611A23FA187818F7
:101410008319381919880388CB1813801A23FB18ED
:101420001A88A0235B009A4233D829007A18BB1D82
:1014300012881B88D3189BB2013B9DB23A1908232E
:10144000FB189B1912881B88D3189BB2013B9BB2D7
:101450003A1914887A181188F86800932B00220032
:1014600000F090F8FB68180000F002F9FB695A1EC2
:10147000FA615A1E9341DBB2002B00D17EE0342387
:1014800008229446BC4463441B88180001F00EF8FF
:10149000ECE718257B190826BA191288A021490003
:1014A0008A1A1A801623FA18302308218C46BC4465
:1014B0006344781919880388CB1A13800A217A1893
:1014C000BB1D12881B88D3189BB2013B9CB2BB1971
:1014D0001A887B181988F8684023FF33009323008B
:1014E00000F050F8FB68180000F0C2F87B191B8868
:1014F000BA1D12885343FB61FB695A1EFA615A1EDA
:101500009341DBB2002B09D0342308229446BC441B
:1015100063441B88180000F0C9FFEDE70A217A1820
:10152000BB1D12881B88D3189BB2013B9AB27B1853
:101530001988F86816243B191B88009313000022B1
:1015400000F020F8FB68180000F092F83B191B88A7
:10155000BA1D12885343FB61FB695A1EFA615A1E79
:101560009341DBB2002B09D0342308229446BC44BB
:1015700063441B88180000F099FFEDE7C046BD46A4
:1015800009B0F0BDB0B584B000AFF8600C00100039
:1015900019000A257B19221C1A8008243B19021CF9
:1015A0001A80BB1D0A1C1A80FB68180000F052F854
:1015B0002A2000F055FFFB68180000F059F87B194D
:1015C0001B881B12DBB2180000F04AFF7B191B8836
:1015D000DBB2180000F044FFBB1D1B881B12DBB2FE
:1015E000180000F03DFFBB1D1B88DBB2180000F0A7
:1015F00037FFFB68180000F02DF82B2000F030FFBB
:10160000FB68180000F034F83B191B881B12DBB292
:10161000180000F025FF3B191B88DBB2180000F012
:101620001FFF20243B191B881B12DBB2180000F09F
:1016300017FF3B191B88DBB2180000F011FFFB6895
:10164000180000F007F82C2000F00AFFC046BD4645
:1016500004B0B0BD80B582B000AF7860034B80228B
:1016600092029A61C046BD4602B080BD000400509F
:1016700080B582B000AF7860034B02229A61C04609
:10168000BD4602B080BDC0460004005080B582B0A7
:1016900000AF7860A023DB055A69A023DB05402159
:1016A0008A435A61C046BD4602B080BD80B582B053
:1016B00000AF7860A023DB055A69A023DB05402139
:1016C0000A435A61C046BD4602B080BD80B582B0B3
:1016D00000AF78600A00FB1C1A707B681800FFF7E7
:1016E000B9FFFB1C1B78180000F0BAFEC046BD46CF
:1016F00002B080BD80B582B000AF78600A00FB1CEC
:101700001A707B681800FFF7B3FFFB1C1B781800EA
:1017100000F0A6FEC046BD4602B080BD80B582B0D6
:1017200000AF78600A00BB1C1A807B681800FFF7C6
:101730009FFFBB1C1B88180000F0B8FEC046BD46CA
:1017400002B080BD80B584B000AF786039600023FE
:10175000BB607B681800FFF77DFF464BFB60FB68B2
:1017600004221A70BB685A1CBA606322D80FD117C2
:101770009A4248410300DBB2002B00D0F2E77B68BD
:101780001800FFF775FF3C4B1A683B4B3B490A407A
:101790001A60FB681A783B681A70374B9B68012205
:1017A00013405A425341DBB2002B00D0F5E7324BD5
:1017B0001A68314B31490A401A60FB681A783B6855
:1017C0001A702D4B1A682C4B2C490A401A602A4B70
:1017D0009B68012213405A425341DBB2002B00D0D8
:1017E000F5E73B680133FA6812781A70224B1A68E1
:1017F000214B22490A401A601F4B9B68012213406B
:101800005A425341DBB2002B00D0F5E73B6802336C
:10181000FA6812781A70184B1A68174B17490A4061
:101820001A60154B9B68012213405A425341DBB2A8
:10183000002B00D0F5E73B680333FA6812781A7082
:101840000D4B9B68012213405A425341DBB2002BDF
:1018500000D0F5E73B680333FA6812781A70064B3C
:101860001A68054B8021C9010A431A60C046BD466B
:1018700004B080BD0C30014000300140FFBFFFFFCD
:1018800080B582B000AF786039607B683321180082
:10189000FFF71CFF7B681800FFF7EAFE002000F04E
:1018A00005FEA0235B00180000F000FE002000F001
:1018B000FDFD7B6837211800FFF708FF3B68A02279
:1018C0005100180001F03AF80B003B607B681800EB
:1018D000FFF7CEFE3B681B12DBB2180000F0C0FD24
:1018E0003B68DBB2180000F0BBFDC046BD4602B04D
:1018F00080BDC04680B500AF2C4B1A682B4B2C49DD
:101900000A401A60294B1A6880239B0413405A1E10
:101910009341DBB2002B00D0F4E7264B1A68254B2D
:101920000F218A431A60234B1A68224B02210A4373
:101930001A60204B1A681F4B802149000A431A6025
:101940001A4BDA68194B02210A43DA60174BDA683E
:10195000164B19490A40DA60144BDA68134B8021A0
:1019600049010A43DA60114BDA68104BF0218A43CF
:10197000DA600E4BDA680D4B10210A43DA600B4B2C
:10198000DA680A4BC02189050A43DA60074B1A68F6
:10199000064B802149040A431A60044B9A68034BA2
:1019A00002210A439A60C046BD4680BD0010024035
:1019B000FFFFFFFE00200240FF80FFFF80B582B0E6
:1019C00000AF164A164BD31A9B103B6000237B6076
:1019D0007A683B689A4208D2114B7A689200D358D1
:1019E00098477B6801337B60F2E70E4A0E4BD31AAF
:1019F0009B103B6000237B607A683B689A4208D268
:101A0000094B7A689200D35898477B6801337B6012
:101A1000F2E7C046BD4602B080BDC0464829000876
:101A200048290008502900084829000880B584B0DA
:101A300000AFFFF75FFF1B4BFB601B4BBB601B4AFC
:101A4000194BD31A7B607B685A1E7A605A1E9341E9
:101A5000DBB2002B09D0FB685A1CFA601978BB680E
:101A60005A1CBA600A1C1A70EDE7114BBB60114A90
:101A70000F4BD31A7B607B685A1E7A605A1E9341C3
:101A8000DBB2002B05D0BB685A1CBA6000221A706A
:101A9000F1E7FFF793FF00F024F8C046BD4604B01D
:101AA00080BDC046E82E0008000000200000002095
:101AB000000000205801002080B500AFFEE7C046BE
:101AC00080B582B000AF78607B685A1E7A605A1E7B
:101AD0009341DBB2002B00D0F6E7C046BD4602B012
:101AE00080BDF0B5C64600B584B002AF00237B6070
:101AF00000F05EFCA14B180000F06EF9A04B18003E
:101B0000FEF7DEFA9F4B5A6B9E4B01210A435A6344
:101B1000A023DB051A68A023DB0502218A431A6093
:101B2000A023DB051A68A023DB0501210A431A6004
:101B3000924B180000F0D8FA03005A1E9341DBB212
:101B4000002B1ED08D4B180000F0FCF903001A008A
:101B50008A4B1100180000F047FAA023DB055A69F0
:101B6000A023DB0501210A435A61874B1800FFF7C8
:101B7000A7FFA023DB055A69A023DB0501218A43C7
:101B80005A6100237B607B68C72B34DC7C4BF022DE
:101B900000211800FFF798F803009DB2784BF0225F
:101BA00000211800FFF790F803009EB2744B7822D2
:101BB00000211800FFF788F803009BB29846704B8D
:101BC000782200211800FFF77FF803009CB26F4ACB
:101BD0006B4B00211800FFF777F803009BB26848B1
:101BE00001930094434632002900FEF7C3FA7B6854
:101BF00001337B60C7E7624800230193F023009321
:101C0000F02300220021FEF785FA00237B607B6829
:101C1000C72B34DC5A4BF02200211800FFF754F890
:101C200003009DB2564BF02200211800FFF74CF83C
:101C300003009EB2524B782200211800FFF744F8AF
:101C400003009BB298464E4B782200211800FFF704
:101C50003BF803009CB24D4A494B00211800FFF7A6
:101C600033F803009BB24648019300944346320088
:101C70002900FEF74FFA7B6801337B60C7E74048D5
:101C800000230193F0230093F02300220021FEF7AC
:101C900041FA00237B607B68C72B2ADC384BF0229B
:101CA00000211800FFF710F803009CB2344BF0221B
:101CB00000211800FFF708F803009DB2304B78228E
:101CC00000211800FFF700F803009EB22F4A2C4BAA
:101CD00000211800FEF7F8FF03009BB2284800938C
:101CE00033002A002100FEF7E7FA7B6801337B60AE
:101CF000D1E7234800230193F0230093F02300222F
:101D00000021FEF707FA00237B607B68312B2ADC79
:101D10001B4BF02200211800FEF7D6FF03009CB2F7
:101D2000174BF02200211800FEF7CEFF03009DB2F2
:101D3000134B782200211800FEF7C6FF03009EB265
:101D4000124A0F4B00211800FEF7BEFF03009BB2A2
:101D50000B48009333002A002100FEF7C7FB7B6885
:101D600001337B60D1E7064800230193F023009301
:101D7000F02300220021FEF7CDF9D9E63000002043
:101D8000000000200010024030750000FFFF00003E
:101D900080B582B000AF786039607B68012B07D1D5
:101DA0003B68054A934203D1044B180001F093F8B5
:101DB000C046BD4602B080BDFFFF000030000020DD
:101DC00080B500AF034B19000120FFF7E1FFBD46CE
:101DD00080BDC046FFFF000080B584B000AF7860D2
:101DE00096239B01FB603C4B7A681A6072B67B6855
:101DF00094220021995000237A68902153507A68E8
:101E00008C2153507B6800229A6000227B685A60C4
:101E10007B681A60314B5A6B304B01210A435A637D
:101E20002E4BDA6B2D4B802189020A43DA63A02303
:101E3000DB051A68A023DB05A0210A431A60A02352
:101E4000DB051A68A023DB0550218A431A60A02312
:101E5000DB051A6AA023DB0521490A401A62A02388
:101E6000DB051A6AA023DB05882149010A431A62AF
:101E70001C4BBB60F968B86800F07AFC0300BB60DB
:101E8000164BDA6A154B18490A40DA62174B0022E2
:101E90001A60164B00225A60144B00229A60134BB2
:101EA000BA68DA60114B012252421A620F4B6C225F
:101EB0001A600E4B1A680D4B01210A431A600C4B35
:101EC0001A680B4B802149050A431A6062B6C04666
:101ED000BD4604B080BDC04648010020001002404D
:101EE000FF00FFFF0090D003FFFFFDFF0044004014
:101EF00000E100E080B582B000AF78600A00FB1C12
:101F00001A700F4B1B68082213405A425341DBB230
:101F1000002B0AD00A4B1A68094B08210A431A60A1
:101F2000074BFA1C12789A6206E07968FB1C1A7853
:101F30007B68180000F082F8C046BD4602B080BD44
:101F40000044004080B582B000AF78607B688C337D
:101F50001A007B681100180000F09AF803001800BE
:101F6000BD4602B080BD80B586B000AF78603960F4
:101F70000A237B6108217B180022DA723B68002B60
:101F800006DA7B182D221A703B685B423B6003E047
:101F90000823FB182B221A707B69002B19DD3B6884
:101FA0000A21180000F0CAFC0B00DBB23033D9B2B2
:101FB0000823FA187B69D3180A1C1A703B680A2197
:101FC000180000F0D5FB03003B607B69013B7B619F
:101FD000E2E70823FA187B681100180000F016F8F1
:101FE000C046BD4606B080BD80B582B000AF786007
:101FF0000A00FB1C1A70FB1C1A787B681100180081
:10200000FFF778FFC046BD4602B080BD80B582B004
:1020100000AF786039603B681B78002B0AD03B68C2
:102020001A787B6811001800FFF764FF3B680133E2
:102030003B60F0E7C046BD4602B080BD80B584B0CD
:1020400000AFF860B960FB1D1A70BB689A687F2109
:10205000002391425B41DBB2002B15D072B6BB6806
:102060009B685A1CBB689A60FB1D1978BB681B688B
:10207000BA68D3180A1C1A73BB681B6801337F2225
:102080001A40BB681A6062B6C046BD4604B080BD47
:1020900080B584B000AF786039600F217B180022D2
:1020A0001A703B689B685A1E9341DBB2002B14D018
:1020B00072B63B689B685A1E3B689A603B685A68D8
:1020C0007B1839688A18127B1A703B685B68013389
:1020D0007F221A403B685A6062B60F23FB181B78B8
:1020E0001800BD4604B080BD80B582B000AF7860F6
:1020F0007B6894229B581800BD4602B080BD80B515
:1021000000AF244BDB69802213405A1E9341DBB29F
:10211000002B20D01F4B1A6A1E4B60210A431A6203
:102120001D4B1B689B685A1E9341DBB2002B0CD0E1
:10213000194B1A68184B1B6819001000FFF7A8FF0D
:1021400003001A00134B9A6205E0124B1A68114BF8
:1021500008218A431A600F4BDB69202213405A1E64
:102160009341DBB2002B11D00B4B18680A4B1B6854
:102170008C331900074B5B6ADBB21A00FFF75EFF76
:10218000044B1A6A034B20210A431A62C046BD461B
:1021900080BDC046004400404801002080B582B0A8
:1021A00000AF78600F4B7A681A600F4B1A6C0E4BB9
:1021B000802109020A431A640B4B5A6B0A4B012116
:1021C0000A435A63094B00221A60084B60229A6145
:1021D000064B1A6A054B01210A431A62C046BD46E6
:1021E00002B080BD4C0100200010024000200040E1
:1021F00090B583B000AF786008001100BB1C021CD2
:102200001A803B000A1C1A80A023DB051A68A02351
:10221000DB0527490A401A60A023DB051A68A023C2
:10222000DB05802189000A431A60A023DB051A6AB6
:10223000A023DB051F490A401A62A023DB051A6AA6
:10224000A023DB058021C9020A431A621A4B1A68CF
:10225000194B01218A431A60174BB72292009A62E8
:10226000154B9B6A1900154800F0F8F903001A0095
:10227000BB1C1B88104C1900100000F0EFF9030084
:10228000E3620D4BDA6A0C4B52085A630A4B002288
:102290005A62094B1A68084B01210A431A60084B1D
:1022A0001B683A0012881A60C046BD4603B090BD54
:1022B000FFFEFFFFFFFFF4FF00200040006CDC0288
:1022C0004C01002080B500AF084B1A68074B012174
:1022D0008A431A60A023DB051A68A023DB050449A2
:1022E0000A401A60C046BD4680BDC046000400409A
:1022F000FFFCFFFF80B582B000AF78607B681B6891
:102300005A1E9341DBB2002B01D0012300E00023D1
:102310001800BD4602B080BD80B586B000AFF86041
:10232000B9607A603B6000237B617A693B689A42BE
:102330001CDAFB681800FFF7DDFF03005A1E93410B
:10234000DBB2002B00D0F4E77B695B00BA68D318DE
:1023500019887B695B007A68D3181A88FB681800B3
:10236000FFF746FF7B6901337B61DEE7C046BD4670
:1023700006B080BD80B500AF0C4B1B681B685A1EB1
:102380009341DBB2002B0ED0084B1B681A68013A50
:102390001A60064B1B681B685A425341DBB2002B84
:1023A00001D0FFF78FFFC046BD4680BD4C01002025
:1023B00080B582B000AF254B1A6C244B80214901B7
:1023C0000A431A64214B5A6B204B01210A435A637A
:1023D000A023DB051A68A023DB051D490A401A600B
:1023E000A023DB051A68A023DB05882109020A4324
:1023F0001A60A023DB051A6AA023DB0515490A40F1
:102400001A62A023DB059A68A023DB05CC21090210
:102410000A439A60104B9B683B600F4B0F4A1A604F
:102420000D4BE022D2005A6000237B607B681F2B9B
:1024300008DC002000F014F803003B607B680133E7
:102440007B60F3E7C046BD4602B080BD001002408D
:10245000FFBBFFFFFFFF0F0F0030014046C300002E
:1024600080B584B000AF0200FB1D1A706423FB60CE
:102470000C4AFB1D1B7813700B4B9B68802213408A
:1024800006D0FB685A1EFA60002B01D0012300E041
:102490000023002B00D0EFE7024B1B781800BD464D
:1024A00004B080BD0C3001400030014080B584B0E4
:1024B00000AF0200BB1D1A806423FB600D4BBA1DE8
:1024C0001288DA600B4B9B688022134006D0FB68B1
:1024D0005A1EFA60002B01D0012300E00023002BDC
:1024E00000D0EFE7034BDB689BB21800BD4604B099
:1024F00080BDC0460030014080B584B000AF786038
:10250000104B7A681A600023FB60FB68072B08DC1D
:102510007B68FA6892000021D150FB680133FB60B0
:10252000F3E7094B1A68084B07210A431A60064B68
:10253000064A5A60044B05229A6062B6C046BD4600
:1025400004B080BD5001002010E000E07FBB00001F
:1025500080B584B000AF786039600023FB60FB6811
:10256000072B10DC7B68FA689200D358002B06D149
:102570007B68FA6892003968D150002305E0FB6857
:102580000133FB60EBE701235B421800BD4604B05A
:1025900080BD80B584B000AF786039600023FB60F7
:1025A000FB68072B11DC7B68FA689200D3583A6805
:1025B0009A4206D17B68FA6892000021D15000232C
:1025C00005E0FB680133FB60EAE701235B4218008A
:1025D000BD4604B080BD80B582B000AF7860396080
:1025E0003B68002B0DD0094B00221A60074B1A687C
:1025F0003B689A429B415B42DBB2002B01D030BF6B
:10260000F4E7C046BD4602B080BDC046540100207C
:1026100080B582B000AF0F4B1B685A1C0D4B1A607F
:1026200000237B607B68072B10DC0B4B1B687A68F0
:102630009200D358002B05D0074B1B687A68920094
:10264000D35898477B6801337B60EBE7C046BD46B3
:1026500002B080BD54010020500100200022430838
:102660008B4274D303098B425FD3030A8B4244D35A
:10267000030B8B4228D3030C8B420DD3FF2209029C
:1026800012BA030C8B4202D31212090265D0030B5B
:102690008B4219D300E0090AC30B8B4201D3CB0351
:1026A000C01A5241830B8B4201D38B03C01A524193
:1026B000430B8B4201D34B03C01A5241030B8B4295
:1026C00001D30B03C01A5241C30A8B4201D3CB0280
:1026D000C01A5241830A8B4201D38B02C01A524165
:1026E000430A8B4201D34B02C01A5241030A8B4268
:1026F00001D30B02C01A5241CDD2C3098B4201D380
:10270000CB01C01A524183098B4201D38B01C01AFD
:10271000524143098B4201D34B01C01A5241030974
:102720008B4201D30B01C01A5241C3088B4201D323
:10273000CB00C01A524183088B4201D38B00C01AD0
:10274000524143088B4201D34B00C01A5241411AF7
:1027500000D20146524110467047FFE701B5002004
:1027600000F0F0F802BDC0460029F7D076E77047C8
:1027700003460B437FD4002243088B4274D30309E2
:102780008B425FD3030A8B4244D3030B8B4228D383
:10279000030C8B420DD3FF22090212BA030C8B42A9
:1027A00002D31212090265D0030B8B4219D300E049
:1027B000090AC30B8B4201D3CB03C01A5241830BCE
:1027C0008B4201D38B03C01A5241430B8B4201D37E
:1027D0004B03C01A5241030B8B4201D30B03C01AA7
:1027E0005241C30A8B4201D3CB02C01A5241830A21
:1027F0008B4201D38B02C01A5241430A8B4201D350
:102800004B02C01A5241030A8B4201D30B02C01A79
:102810005241CDD2C3098B4201D3CB01C01A5241E0
:1028200083098B4201D38B01C01A524143098B4269
:1028300001D34B01C01A524103098B4201D30B0152
:10284000C01A5241C3088B4201D3CB00C01A524177
:1028500083088B4201D38B00C01A524143088B423C
:1028600001D34B00C01A5241411A00D201465241D5
:10287000104670475DE0CA0F00D04942031000D3F4
:102880004042534000229C4603098B422DD3030A49
:102890008B4212D3FC22890112BA030A8B420CD359
:1028A000890192118B4208D3890192118B4204D382
:1028B00089013AD0921100E08909C3098B4201D302
:1028C000CB01C01A524183098B4201D38B01C01A3C
:1028D000524143098B4201D34B01C01A52410309B3
:1028E0008B4201D30B01C01A5241C3088B4201D362
:1028F000CB00C01A524183088B4201D38B00C01A0F
:102900005241D9D243088B4201D34B00C01A5241E5
:10291000411A00D20146634652415B10104601D372
:102920004042002B00D54942704763465B1000D3FC
:10293000404201B5002000F005F802BD0029F8D0A2
:1029400016E770477047C046ED0D0008C11D00082E
:10295000450C750FC50D5F10750F60125F10450CAB
:10296000450C6012450C6012450C0000C800C80000
:10297000C800C800C800C800C800C800C800C80017
:10298000C800C800C8000000000000000000005F90
:1029900000000007000700147F147F14242A7F2AF8
:1029A00012231308646236495522500005030000C3
:1029B000001C2241000041221C00082A1C2A080891
:1029C000083E0808005030000008080808080060A9
:1029D00060000020100804023E5149453E00427F3D
:1029E000400042615149462141454B311814127F44
:1029F0001027454545393C4A4949300171090503CD
:102A00003649494936064949291E00363600000034
:102A100056360000000814224114141414144122E4
:102A20001408000201510906324979413E7E111114
:102A3000117E7F494949363E414141227F41412231
:102A40001C7F494949417F090901013E41415132F9
:102A50007F0808087F00417F41002040413F017FFF
:102A6000081422417F404040407F0204027F7F04DF
:102A700008107F3E4141413E7F090909063E415110
:102A8000215E7F09192946464949493101017F01E3
:102A9000013F4040403F1F2040201F7F2018207FE3
:102AA0006314081463030478040361514945430027
:102AB000007F4141020408102041417F00000402D0
:102AC00001020440404040400001020400205454F0
:102AD00054787F4844443838444444203844444877
:102AE0007F3854545418087E090102081454543C89
:102AF0007F0804047800447D40002040443D0000ED
:102B00007F10284400417F40007C041804787C0832
:102B100004047838444444387C1414140808141409
:102B2000187C7C080404084854545420043F444052
:102B3000203C4040207C1C2040201C3C4030403C3D
:102B400044281028440C5050503C4464544C4400D9
:102B50000836410000007F000000413608000808E8
:102B60002A1C08081C2A0808450C750FC50D5F10A3
:102B7000750F60125F10450C450C6012450C601219
:102B8000450C0000C800C800C800C800C800C80044
:102B9000C800C800C800C800C800C800C8000000BD
:102BA000450C750FC50D5F10750F60125F10450C59
:102BB000450C6012450C6012450C0000C800C800AE
:102BC000C800C800C800C800C800C800C800C800C5
:102BD000C800C800C8004743433A2028474E552044
:102BE000546F6F6C7320666F722041726D20456D5B
:102BF0006265646465642050726F636573736F729D
:102C00007320392D323031392D71342D6D616A6F59
:102C1000722920392E322E31203230313931303282
:102C200035202872656C6561736529205B41524DC2
:102C30002F61726D2D392D6272616E63682072652D
:102C4000766973696F6E203237373539395D0041E7
:102C50002B00000061656162690001210000000530
:102C600036532D4D00060C074D09011204140115B1
:102C7000011703180119011A011E06412B0000005B
:102C800061656162690001210000000536532D4D28
:102C900000060C074D090112041401150117031851
:102CA0000119011A011E06412B00000061656162D5
:102CB000690001210000000536532D4D00060C0768
:102CC0004D09011204140115011703180119011A05
:102CD000011E06412B00000061656162690001214F
:102CE0000000000536532D4D00060C074D0901125A
:102CF00004140115011703180119011A011E0641D8
:102D00002B0000006165616269000121000000057F
:102D100036532D4D00060C074D0901120414011500
:102D2000011703180119011A011E06412B000000AA
:102D300061656162690001210000000536532D4D77
:102D400000060C074D0901120414011501170318A0
:102D50000119011A011E06412B0000006165616224
:102D6000690001210000000536532D4D00060C07B7
:102D70004D09011204140115011703180119011A54
:102D8000011E06412B00000061656162690001219E
:102D90000000000536532D4D00060C074D090112A9
:102DA00004140115011703180119011A011E064127
:102DB0002B000000616561626900012100000005CF
:102DC00036532D4D00060C074D0901120414011550
:102DD000011703180119011A011E06411D00000008
:102DE00061656162690001130000000536532D4DD5
:102DF00000060C074D09011901411D000000616525
:102E00006162690001130000000536532D4D000674
:102E10000C074D09011901411D0000006165616247
:102E2000690001130000000536532D4D00060C0704
:052E30004D090119012C
:102E360080B582B000AF78607B681800BD4602B0EE
:022E460080BD4D
:102E480080B582B000AF78607B681800BD4602B0DC
:022E580080BD3B
:102E5A0080B582B000AF78607B681800BD4602B0CA
:022E6A0080BD29
:102E6C0080B582B000AF78607B681800BD4602B0B8
:022E7C0080BD17
:102E7E0080B582B000AF78607B681800FFF7D4FF92
:102E8E007B6820331800FFF7EAFF7B6824331800B5
:102E9E00FFF7DCFF7B6825331800FFF7CEFF7B685A
:082EAE001800BD4602B080BD12
:102EB60080B582B000AF786039603B68002B02DADB
:102EC6003B685B4200E03B681800BD4602B080BD2F
:102ED60080B582B000AF78607B681800BD4602B04E
:022EE60080BDAD
:0400000508000000EF
:00000001FF
