:020000040800F2
:1000000000200020F5020008810300088103000899
:1000100081030008810300088103000881030008B0
:1000200081030008810300088103000881030008A0
:100030008103000881030008810300088103000890
:100040008103000881030008810300088103000880
:100050008103000881030008810300088103000870
:100060008103000881030008810300088103000860
:100070008103000881030008810300088103000850
:100080008103000881030008810300088103000840
:100090008103000881030008810300088103000830
:1000A0008103000881030008810300088103000820
:1000B000EF0700088103000881030008810300089E
:1000C00080B584B000AF7860294B1A6C284B802132
:1000D00049030A431A64274B1A69264B80210906F3
:1000E0000A431A61234B1A69224B23490A401A61B9
:1000F000204B00229A601F4B802252019A621D4BB6
:10010000802252059A601B4AC2239B00D35819498A
:10011000C02212041A43C2239B00CA500023FB6072
:10012000FA680123191CFA239B009A4201DB002381
:10013000191CCBB2002B03D0FB680133FB60EFE747
:100140000C4B9A680B4B802109060A439A60094BB5
:100150009B68DB0FDBB2002B00D0F8E7054B0122D8
:100160005A61044B01229A60C046BD4604B080BD6E
:100170000010024000240140FFFFFFBF80B582B0A5
:1001800000AF78600C4B802252019A620A4B9A6849
:10019000094B05210A439A60074B9B6804221340D0
:1001A0005A425341DBB2002B00D0F5E7024B1B6CE7
:1001B0001800BD4602B080BD0024014080B500AFEC
:1001C0002C4B1A682B4B2C490A401A60294B1A6891
:1001D00080239B0413405A1E9341DBB2002B00D0B6
:1001E000F4E7264B1A68254B0F218A431A60234BEC
:1001F0001A68224B02210A431A60204B1A681F4BCF
:10020000802149000A431A601A4BDA68194B02210F
:100210000A43DA60174BDA68164B19490A40DA606C
:10022000144BDA68134B802149010A43DA60114B01
:10023000DA68104BF0218A43DA600E4BDA680D4B16
:1002400010210A43DA600B4BDA680A4BC02189059A
:100250000A43DA60074B1A68064B802149040A43B7
:100260001A60044B9A68034B02210A439A60C04605
:10027000BD4680BD00100240FFFFFFFE002002408F
:10028000FF80FFFF80B582B000AF164A164BD31A2D
:100290009B103B6000237B607A683B689A4208D2DF
:1002A000114B7A689200D35898477B6801337B6082
:1002B000F2E70E4A0E4BD31A9B103B6000237B6083
:1002C0007A683B689A4208D2094B7A689200D35800
:1002D00098477B6801337B60F2E7C046BD4602B0B9
:1002E00080BDC046640A0008640A0008680A000865
:1002F000640A000880B584B000AFFFF75FFF1B4BB6
:10030000FB601B4BBB601B4A194BD31A7B607B689D
:100310005A1E7A605A1E9341DBB2002B09D0FB684B
:100320005A1CFA601978BB685A1CBA600A1C1A7009
:10033000EDE7114BBB60114A0F4BD31A7B607B6812
:100340005A1E7A605A1E9341DBB2002B05D0BB685F
:100350005A1CBA6000221A70F1E7FFF793FF00F011
:1003600024F8C046BD4604B080BDC046000C00085D
:1003700000000020000000200000002020010020DC
:1003800080B500AFFEE7C04680B582B000AF7860B0
:100390007B685A1E7A605A1E9341DBB2002B00D054
:1003A000F6E7C046BD4602B080BD80B582B000AF62
:1003B00000237B60244B1800FFF782FE234B1800BC
:1003C00000F078F8224B5A6B214B01210A435A6303
:1003D000A023DB051A68A023DB0502218A431A60EB
:1003E000A023DB051A68A023DB0501210A431A605C
:1003F000A023DB055A69A023DB0501210A435A61CA
:10040000144A124B1100180000F078F90E4B180036
:10041000FFF7B4FE02000D4B1100180000F01BF9AD
:100420000D4A0A4B1100180000F068F9A023DB0503
:100430005A69A023DB0501218A435A61074B180042
:10044000FFF7A2FFD4E7C046000000200400002010
:1004500000100240680A0008740A000830750000A5
:1004600080B582B000AF786039607B68012B0BD11A
:100470003B68074A934207D1064B180000F0B7FBD0
:10048000054B180000F0AAFBC046BD4602B080BD77
:10049000FFFF0000000000200400002080B500AF36
:1004A000034B19000120FFF7DBFFBD4680BDC046AE
:1004B000FFFF000080B584B000AF786096239B01F9
:1004C000FB603C4B7A681A6072B67B68942200210C
:1004D000995000237A68902153507A688C215350A8
:1004E0007B6800229A6000227B685A607B681A60F1
:1004F000314B5A6B304B01210A435A632E4BDA6B56
:100500002D4B802189020A43DA63A023DB051A6898
:10051000A023DB05A0210A431A60A023DB051A688B
:10052000A023DB0550218A431A60A023DB051A6A49
:10053000A023DB0521490A401A62A023DB051A6AC1
:10054000A023DB05882149010A431A621C4BBB60CA
:10055000F968B86800F09AF90300BB60164BDA6AD4
:10056000154B18490A40DA62174B00221A60164BE5
:1005700000225A60144B00229A60134BBA68DA606A
:10058000114B012252421A620F4B6C221A600E4B21
:100590001A680D4B01210A431A600C4B1A680B4B69
:1005A000802149050A431A6062B6C046BD4604B0C0
:1005B00080BDC0461C01002000100240FF00FFFF6C
:1005C0000090D003FFFFFDFF0044004000E100E089
:1005D00080B582B000AF78600A00FB1C1A707B689F
:1005E0009B687F229A429B415B42DBB2002B00D08A
:1005F000F5E70F4B1B68082213405A425341DBB208
:10060000002B0AD00A4B1A68094B08210A431A60CA
:10061000074BFA1C12789A6206E07968FB1C1A787C
:100620007B68180000F082F8C046BD4602B080BD6D
:100630000044004080B582B000AF78607B688C33A6
:100640001A007B681100180000F09AF803001800E7
:10065000BD4602B080BD80B586B000AF786039601D
:100660000A237B6108217B180022DA723B68002B89
:1006700006DA7B182D221A703B685B423B6003E070
:100680000823FB182B221A707B69002B19DD3B68AD
:100690000A21180000F0E0F90B00DBB23033D9B2C8
:1006A0000823FA187B69D3180A1C1A703B680A21C0
:1006B000180000F0EBF803003B607B69013B7B61B5
:1006C000E2E70823FA187B681100180000F016F81A
:1006D000C046BD4606B080BD80B582B000AF786030
:1006E0000A00FB1C1A70FB1C1A787B6811001800AA
:1006F000FFF76EFFC046BD4602B080BD80B582B038
:1007000000AF786039603B681B78002B0AD03B68EB
:100710001A787B6811001800FFF75AFF3B68013315
:100720003B60F0E7C046BD4602B080BD80B584B0F6
:1007300000AFF860B960FB1D1A70BB689A687F2132
:10074000002391425B41DBB2002B15D072B6BB682F
:100750009B685A1CBB689A60FB1D1978BB681B68B4
:10076000BA68D3180A1C1A73BB681B6801337F224E
:100770001A40BB681A6062B6C046BD4604B080BD70
:1007800080B584B000AF786039600F217B180022FB
:100790001A703B689B685A1E9341DBB2002B14D041
:1007A00072B63B689B685A1E3B689A603B685A6801
:1007B0007B1839688A18127B1A703B685B680133B2
:1007C0007F221A403B685A6062B60F23FB181B78E1
:1007D0001800BD4604B080BD80B582B000AF78601F
:1007E0007B6894229B581800BD4602B080BD80B53E
:1007F00000AF244BDB69802213405A1E9341DBB2C9
:10080000002B20D01F4B1A6A1E4B60210A431A622C
:100810001D4B1B689B685A1E9341DBB2002B0CD00A
:10082000194B1A68184B1B6819001000FFF7A8FF36
:1008300003001A00134B9A6205E0124B1A68114B21
:1008400008218A431A600F4BDB69202213405A1E8D
:100850009341DBB2002B11D00B4B18680A4B1B687D
:100860008C331900074B5B6ADBB21A00FFF75EFF9F
:10087000044B1A6A034B20210A431A62C046BD4644
:1008800080BDC046004400401C01002003460B43CD
:100890007FD4002243088B4274D303098B425FD379
:1008A000030A8B4244D3030B8B4228D3030C8B42A5
:1008B0000DD3FF22090212BA030C8B4202D312128B
:1008C000090265D0030B8B4219D300E0090AC30B60
:1008D0008B4201D3CB03C01A5241830B8B4201D30D
:1008E0008B03C01A5241430B8B4201D34B03C01AF6
:1008F0005241030B8B4201D30B03C01A5241C30A6E
:100900008B4201D3CB02C01A5241830A8B4201D3DE
:100910008B02C01A5241430A8B4201D34B02C01AC8
:100920005241030A8B4201D30B02C01A5241CDD26D
:10093000C3098B4201D3CB01C01A524183098B42B8
:1009400001D38B01C01A524143098B4201D34B01A1
:10095000C01A524103098B4201D30B01C01A524104
:10096000C3088B4201D3CB00C01A524183088B428B
:1009700001D38B00C01A524143088B4201D34B0074
:10098000C01A5241411A00D20146524110467047E6
:100990005DE0CA0F00D04942031000D340425340EB
:1009A00000229C4603098B422DD3030A8B4212D3AB
:1009B000FC22890112BA030A8B420CD389019211DD
:1009C0008B4208D3890192118B4204D389013AD01A
:1009D000921100E08909C3098B4201D3CB01C01AEF
:1009E000524183098B4201D38B01C01A5241430902
:1009F0008B4201D34B01C01A524103098B4201D3F0
:100A00000B01C01A5241C3088B4201D3CB00C01A5C
:100A1000524183088B4201D38B00C01A5241D9D274
:100A200043088B4201D34B00C01A5241411A00D2F5
:100A30000146634652415B10104601D34042002BF1
:100A400000D54942704763465B1000D3404201B570
:100A5000002000F005F802BD0029F8D016E7704725
:100A60007047C0469D04000856616C7565203D20A6
:100A7000000000000D0A004743433A2028474E5526
:100A800020546F6F6C7320666F722041726D204529
:100A90006D6265646465642050726F636573736F23
:100AA000727320392D323031392D71342D6D616AD8
:100AB0006F722920392E322E3120323031393130C7
:100AC0003235202872656C6561736529205B41525F
:100AD0004D2F61726D2D392D6272616E63682072C7
:100AE00065766973696F6E203237373539395D0045
:100AF000412B000000616561626900012100000076
:100B00000536532D4D00060C074D09011204140142
:100B100015011703180119011A011E06412B0000C7
:100B20000061656162690001210000000536532DF6
:100B30004D00060C074D090112041401150117039D
:100B4000180119011A011E06412B000000616561A0
:100B500062690001210000000536532D4D00060C8E
:100B6000074D090112041401150117031801190199
:100B70001A011E06412B00000061656162690001D7
:100B8000210000000536532D4D00060C074D0901CC
:100B90001204140115011703180119011A011E0688
:100BA000411D0000006165616269000113000000E1
:100BB0000536532D4D00060C074D09011901411D45
:100BC00000000061656162690001130000000536E4
:0C0BD000532D4D00060C074D09011901C2
:100BDC0080B582B000AF78607B681800BD4602B06B
:020BEC0080BDCA
:100BEE0080B582B000AF78607B681800BD4602B059
:020BFE0080BDB8
:0400000508000000EF
:00000001FF
