:020000040800F2
:1000000000200020F9010008850200088502000890
:1000100085020008850200088502000885020008A4
:100020008502000885020008850200088502000894
:100030008502000885020008850200088502000884
:100040008502000885020008850200088502000874
:100050008502000885020008850200088502000864
:100060008502000885020008850200088502000854
:100070008502000885020008850200088502000844
:100080008502000885020008850200088502000834
:100090008502000885020008850200088502000824
:1000A0008502000885020008850200088502000814
:1000B0008502000885020008850200088502000804
:1000C00080B500AF2C4B1A682B4B2C490A401A60A4
:1000D000294B1A6880239B0413405A1E9341DBB2BC
:1000E000002B00D0F4E7264B1A68254B0F218A43DA
:1000F0001A60234B1A68224B02210A431A60204BD4
:100100001A681F4B802149000A431A601A4BDA68AB
:10011000194B02210A43DA60174BDA68164B19496A
:100120000A40DA60144BDA68134B802149010A4314
:10013000DA60114BDA68104BF0218A43DA600E4B1B
:10014000DA680D4B10210A43DA600B4BDA680A4B70
:10015000C02189050A43DA60074B1A68064B8021E3
:1001600049040A431A60044B9A68034B02210A436C
:100170009A60C046BD4680BD00100240FFFFFFFEF2
:1001800000200240FF80FFFF80B582B000AF164A1A
:10019000164BD31A9B103B6000237B607A683B6848
:1001A0009A4208D2114B7A689200D35898477B68DC
:1001B00001337B60F2E70E4A0E4BD31A9B103B6073
:1001C00000237B607A683B689A4208D2094B7A68C0
:1001D0009200D35898477B6801337B60F2E7C046B2
:1001E000BD4602B080BDC0462003000820030008C1
:1001F000200300082003000880B584B000AFFFF79B
:100200005FFF1B4BFB601B4BBB601B4A194BD31A98
:100210007B607B685A1E7A605A1E9341DBB2002BCA
:1002200009D0FB685A1CFA601978BB685A1CBA607E
:100230000A1C1A70EDE7114BBB60114A0F4BD31A21
:100240007B607B685A1E7A605A1E9341DBB2002B9A
:1002500005D0BB685A1CBA6000221A70F1E7FFF79C
:1002600093FF00F024F8C046BD4604B080BDC046F0
:10027000F103000800000020000000200000002022
:100280000000002080B500AFFEE7C04680B582B018
:1002900000AF78607B685A1E7A605A1E9341DBB2C9
:1002A000002B00D0F6E7C046BD4602B080BD80B549
:1002B00082B000AF00237B60174B5A6B164B0121B5
:1002C0000A435A63A023DB051A68A023DB05022139
:1002D0008A431A60A023DB051A68A023DB050121ED
:1002E0000A431A60A023DB055A69A023DB0501211C
:1002F0000A435A61094B1800FFF7C8FFA023DB052A
:100300005A69A023DB0501218A435A61034B180077
:10031000FFF7BCFFE6E7C04600100240E093040090
:100320004743433A2028474E5520546F6F6C732043
:10033000666F722041726D20456D6265646465640C
:100340002050726F636573736F727320392D323072
:1003500031392D71342D6D616A6F722920392E3239
:100360002E31203230313931303235202872656CEF
:100370006561736529205B41524D2F61726D2D3986
:100380002D6272616E6368207265766973696F6E43
:10039000203237373539395D00412B000000616567
:1003A0006162690001210000000536532D4D0006F1
:1003B0000C074D0901120414011501170318011946
:1003C000011A011E06412B0000006165616269008F
:1003D00001210000000536532D4D00060C074D0984
:1003E000011204140115011703180119011A011E45
:0103F0000606
:0400000508000000EF
:00000001FF
